:020000020000FC
:040000000C9420003C
:040008000C94000252
:060010000C94230215C050
:1000400000E10EBF0FEF0DBF00E007BB0FE004BBE8
:10005000AB9AAA9AA99A00E001BB0AE008BB0CEC93
:1000600000936A000AE009BF789400E80ABB41E007
:10007000DF9800E1342F3195030F8FEF9FEF019749
:10008000F1F70A95D1F7DF9A00E1342F3195030F8C
:0E0090008FEF9FEF0197F1F70A95D1F7E9CFB7
:100400002F932FB72F934F3009F04395142F169544
:1004100018F0A89A0C940D02A898169518F0A99AAD
:100420000C941302A998169518F0AA9A0C94190224
:10043000AA98169518F0AB9A0C941F02AB982F91BE
:100440002FBF2F9118952F932FB72F93413009F07D
:100450004A95142F169518F0A89A0C943002A89873
:10046000169518F0A99A0C943602A998169518F0CA
:10047000AA9A0C943C02AA98169518F0AB9A0C9480
:0C0480004202AB982F912FBF2F911895CE
:00000001FF
